{
  "_format": "hh-sol-artifact-1",
  "contractName": "Foliohouse",
  "sourceName": "contracts/Foliohouse.sol",
  "abi": [
    {
      "anonymous": false,
      "inputs": [
        {
          "indexed": true,
          "internalType": "uint256",
          "name": "id",
          "type": "uint256"
        },
        {
          "indexed": true,
          "internalType": "address",
          "name": "user",
          "type": "address"
        },
        {
          "indexed": false,
          "internalType": "uint256",
          "name": "tokensEarned",
          "type": "uint256"
        }
      ],
      "name": "DatasetAccessed",
      "type": "event"
    },
    {
      "anonymous": false,
      "inputs": [
        {
          "indexed": true,
          "internalType": "uint256",
          "name": "id",
          "type": "uint256"
        },
        {
          "indexed": true,
          "internalType": "address",
          "name": "user",
          "type": "address"
        }
      ],
      "name": "DatasetAllowed",
      "type": "event"
    },
    {
      "anonymous": false,
      "inputs": [
        {
          "indexed": true,
          "internalType": "uint256",
          "name": "id",
          "type": "uint256"
        },
        {
          "indexed": true,
          "internalType": "address",
          "name": "creator",
          "type": "address"
        },
        {
          "indexed": false,
          "internalType": "uint256",
          "name": "size",
          "type": "uint256"
        }
      ],
      "name": "DatasetCreated",
      "type": "event"
    },
    {
      "anonymous": false,
      "inputs": [
        {
          "indexed": true,
          "internalType": "uint256",
          "name": "id",
          "type": "uint256"
        },
        {
          "indexed": true,
          "internalType": "address",
          "name": "remover",
          "type": "address"
        }
      ],
      "name": "DatasetRemoved",
      "type": "event"
    },
    {
      "inputs": [],
      "name": "FREE_STORAGE_LIMIT",
      "outputs": [
        {
          "internalType": "uint256",
          "name": "",
          "type": "uint256"
        }
      ],
      "stateMutability": "view",
      "type": "function"
    },
    {
      "inputs": [],
      "name": "GB",
      "outputs": [
        {
          "internalType": "uint256",
          "name": "",
          "type": "uint256"
        }
      ],
      "stateMutability": "view",
      "type": "function"
    },
    {
      "inputs": [],
      "name": "STORAGE_PRICE_PER_BYTE",
      "outputs": [
        {
          "internalType": "uint256",
          "name": "",
          "type": "uint256"
        }
      ],
      "stateMutability": "view",
      "type": "function"
    },
    {
      "inputs": [
        {
          "internalType": "string",
          "name": "fileUrl",
          "type": "string"
        }
      ],
      "name": "accessDataset",
      "outputs": [],
      "stateMutability": "nonpayable",
      "type": "function"
    },
    {
      "inputs": [
        {
          "internalType": "address",
          "name": "",
          "type": "address"
        }
      ],
      "name": "balances",
      "outputs": [
        {
          "internalType": "uint256",
          "name": "",
          "type": "uint256"
        }
      ],
      "stateMutability": "view",
      "type": "function"
    },
    {
      "inputs": [
        {
          "internalType": "uint256",
          "name": "size",
          "type": "uint256"
        },
        {
          "internalType": "string",
          "name": "name",
          "type": "string"
        },
        {
          "internalType": "string",
          "name": "fileUrl",
          "type": "string"
        },
        {
          "internalType": "string",
          "name": "metaData",
          "type": "string"
        },
        {
          "internalType": "bool",
          "name": "isPrivate",
          "type": "bool"
        }
      ],
      "name": "createDataset",
      "outputs": [],
      "stateMutability": "nonpayable",
      "type": "function"
    },
    {
      "inputs": [
        {
          "internalType": "uint256",
          "name": "",
          "type": "uint256"
        }
      ],
      "name": "datasets",
      "outputs": [
        {
          "internalType": "uint256",
          "name": "id",
          "type": "uint256"
        },
        {
          "internalType": "address",
          "name": "creator",
          "type": "address"
        },
        {
          "internalType": "uint256",
          "name": "size",
          "type": "uint256"
        },
        {
          "internalType": "string",
          "name": "name",
          "type": "string"
        },
        {
          "internalType": "string",
          "name": "fileUrl",
          "type": "string"
        },
        {
          "internalType": "string",
          "name": "metaData",
          "type": "string"
        },
        {
          "internalType": "uint256",
          "name": "accessCount",
          "type": "uint256"
        },
        {
          "internalType": "uint256",
          "name": "tokensEarned",
          "type": "uint256"
        },
        {
          "internalType": "bool",
          "name": "isPrivate",
          "type": "bool"
        }
      ],
      "stateMutability": "view",
      "type": "function"
    },
    {
      "inputs": [],
      "name": "getAllDatasets",
      "outputs": [
        {
          "components": [
            {
              "internalType": "uint256",
              "name": "id",
              "type": "uint256"
            },
            {
              "internalType": "address",
              "name": "creator",
              "type": "address"
            },
            {
              "internalType": "uint256",
              "name": "size",
              "type": "uint256"
            },
            {
              "internalType": "string",
              "name": "name",
              "type": "string"
            },
            {
              "internalType": "string",
              "name": "fileUrl",
              "type": "string"
            },
            {
              "internalType": "string",
              "name": "metaData",
              "type": "string"
            },
            {
              "internalType": "uint256",
              "name": "accessCount",
              "type": "uint256"
            },
            {
              "internalType": "uint256",
              "name": "tokensEarned",
              "type": "uint256"
            },
            {
              "internalType": "bool",
              "name": "isPrivate",
              "type": "bool"
            }
          ],
          "internalType": "struct Foliohouse.Dataset[]",
          "name": "",
          "type": "tuple[]"
        }
      ],
      "stateMutability": "view",
      "type": "function"
    },
    {
      "inputs": [
        {
          "internalType": "uint256",
          "name": "id",
          "type": "uint256"
        }
      ],
      "name": "getDatasetById",
      "outputs": [
        {
          "components": [
            {
              "internalType": "uint256",
              "name": "id",
              "type": "uint256"
            },
            {
              "internalType": "address",
              "name": "creator",
              "type": "address"
            },
            {
              "internalType": "uint256",
              "name": "size",
              "type": "uint256"
            },
            {
              "internalType": "string",
              "name": "name",
              "type": "string"
            },
            {
              "internalType": "string",
              "name": "fileUrl",
              "type": "string"
            },
            {
              "internalType": "string",
              "name": "metaData",
              "type": "string"
            },
            {
              "internalType": "uint256",
              "name": "accessCount",
              "type": "uint256"
            },
            {
              "internalType": "uint256",
              "name": "tokensEarned",
              "type": "uint256"
            },
            {
              "internalType": "bool",
              "name": "isPrivate",
              "type": "bool"
            }
          ],
          "internalType": "struct Foliohouse.Dataset",
          "name": "",
          "type": "tuple"
        }
      ],
      "stateMutability": "view",
      "type": "function"
    },
    {
      "inputs": [],
      "name": "getMyTokens",
      "outputs": [
        {
          "internalType": "uint256",
          "name": "",
          "type": "uint256"
        }
      ],
      "stateMutability": "view",
      "type": "function"
    },
    {
      "inputs": [],
      "name": "getMyusedStorage",
      "outputs": [
        {
          "internalType": "uint256",
          "name": "",
          "type": "uint256"
        }
      ],
      "stateMutability": "view",
      "type": "function"
    },
    {
      "inputs": [],
      "name": "getOwnedDatasets",
      "outputs": [
        {
          "components": [
            {
              "internalType": "uint256",
              "name": "id",
              "type": "uint256"
            },
            {
              "internalType": "address",
              "name": "creator",
              "type": "address"
            },
            {
              "internalType": "uint256",
              "name": "size",
              "type": "uint256"
            },
            {
              "internalType": "string",
              "name": "name",
              "type": "string"
            },
            {
              "internalType": "string",
              "name": "fileUrl",
              "type": "string"
            },
            {
              "internalType": "string",
              "name": "metaData",
              "type": "string"
            },
            {
              "internalType": "uint256",
              "name": "accessCount",
              "type": "uint256"
            },
            {
              "internalType": "uint256",
              "name": "tokensEarned",
              "type": "uint256"
            },
            {
              "internalType": "bool",
              "name": "isPrivate",
              "type": "bool"
            }
          ],
          "internalType": "struct Foliohouse.Dataset[]",
          "name": "",
          "type": "tuple[]"
        }
      ],
      "stateMutability": "view",
      "type": "function"
    },
    {
      "inputs": [],
      "name": "getPublicDatasets",
      "outputs": [
        {
          "components": [
            {
              "internalType": "uint256",
              "name": "id",
              "type": "uint256"
            },
            {
              "internalType": "address",
              "name": "creator",
              "type": "address"
            },
            {
              "internalType": "uint256",
              "name": "size",
              "type": "uint256"
            },
            {
              "internalType": "string",
              "name": "name",
              "type": "string"
            },
            {
              "internalType": "string",
              "name": "fileUrl",
              "type": "string"
            },
            {
              "internalType": "string",
              "name": "metaData",
              "type": "string"
            },
            {
              "internalType": "uint256",
              "name": "accessCount",
              "type": "uint256"
            },
            {
              "internalType": "uint256",
              "name": "tokensEarned",
              "type": "uint256"
            },
            {
              "internalType": "bool",
              "name": "isPrivate",
              "type": "bool"
            }
          ],
          "internalType": "struct Foliohouse.Dataset[]",
          "name": "",
          "type": "tuple[]"
        }
      ],
      "stateMutability": "view",
      "type": "function"
    },
    {
      "inputs": [
        {
          "internalType": "address",
          "name": "creator",
          "type": "address"
        }
      ],
      "name": "getPublicDatasetsByCreator",
      "outputs": [
        {
          "components": [
            {
              "internalType": "uint256",
              "name": "id",
              "type": "uint256"
            },
            {
              "internalType": "address",
              "name": "creator",
              "type": "address"
            },
            {
              "internalType": "uint256",
              "name": "size",
              "type": "uint256"
            },
            {
              "internalType": "string",
              "name": "name",
              "type": "string"
            },
            {
              "internalType": "string",
              "name": "fileUrl",
              "type": "string"
            },
            {
              "internalType": "string",
              "name": "metaData",
              "type": "string"
            },
            {
              "internalType": "uint256",
              "name": "accessCount",
              "type": "uint256"
            },
            {
              "internalType": "uint256",
              "name": "tokensEarned",
              "type": "uint256"
            },
            {
              "internalType": "bool",
              "name": "isPrivate",
              "type": "bool"
            }
          ],
          "internalType": "struct Foliohouse.Dataset[]",
          "name": "",
          "type": "tuple[]"
        }
      ],
      "stateMutability": "view",
      "type": "function"
    },
    {
      "inputs": [
        {
          "internalType": "uint256",
          "name": "id",
          "type": "uint256"
        }
      ],
      "name": "removeDataset",
      "outputs": [],
      "stateMutability": "nonpayable",
      "type": "function"
    },
    {
      "inputs": [
        {
          "internalType": "address",
          "name": "",
          "type": "address"
        }
      ],
      "name": "usedStorage",
      "outputs": [
        {
          "internalType": "uint256",
          "name": "",
          "type": "uint256"
        }
      ],
      "stateMutability": "view",
      "type": "function"
    }
  ],
  "bytecode": "0x608060405234801561001057600080fd5b50613506806100206000396000f3fe608060405234801561001057600080fd5b50600436106101005760003560e01c80637c197efc11610097578063cb9b8a9811610066578063cb9b8a98146102a5578063cc94ecd2146102d5578063def761fa14610305578063e0a674801461032357610100565b80637c197efc1461021f5780639e9472601461023b578063ab2c81e41461026b578063bc5940df1461028757610100565b80634d72cd12116100d35780634d72cd12146101a95780634fb4806e146101c75780635b3b136a146101e35780636af038301461020157610100565b80631cff85e11461010557806327e235e31461013d5780633d2346e61461016d5780634076f2df1461018b575b600080fd5b61011f600480360381019061011a91906129cd565b610341565b60405161013499989796959493929190612fb1565b60405180910390f35b61015760048036038101906101529190612963565b610564565b6040516101649190612f96565b60405180910390f35b61017561057c565b6040516101829190612ed2565b60405180910390f35b610193610a0e565b6040516101a09190612f96565b60405180910390f35b6101b1610a55565b6040516101be9190612ed2565b60405180910390f35b6101e160048036038101906101dc91906129cd565b610d04565b005b6101eb610efa565b6040516101f89190612f96565b60405180910390f35b610209610f41565b6040516102169190612f96565b60405180910390f35b610239600480360381019061023491906129f6565b610f46565b005b61025560048036038101906102509190612963565b61146c565b6040516102629190612f96565b60405180910390f35b6102856004803603810190610280919061298c565b611484565b005b61028f61181a565b60405161029c9190612f96565b60405180910390f35b6102bf60048036038101906102ba91906129cd565b611822565b6040516102cc9190612f74565b60405180910390f35b6102ef60048036038101906102ea9190612963565b611b1b565b6040516102fc9190612ed2565b60405180910390f35b61030d612233565b60405161031a9190612ed2565b60405180910390f35b61032b612749565b6040516103389190612f96565b60405180910390f35b6003818154811061035157600080fd5b90600052602060002090600902016000915090508060000154908060010160009054906101000a900473ffffffffffffffffffffffffffffffffffffffff16908060020154908060030180546103a69061329d565b80601f01602080910402602001604051908101604052809291908181526020018280546103d29061329d565b801561041f5780601f106103f45761010080835404028352916020019161041f565b820191906000526020600020905b81548152906001019060200180831161040257829003601f168201915b5050505050908060040180546104349061329d565b80601f01602080910402602001604051908101604052809291908181526020018280546104609061329d565b80156104ad5780601f10610482576101008083540402835291602001916104ad565b820191906000526020600020905b81548152906001019060200180831161049057829003601f168201915b5050505050908060050180546104c29061329d565b80601f01602080910402602001604051908101604052809291908181526020018280546104ee9061329d565b801561053b5780601f106105105761010080835404028352916020019161053b565b820191906000526020600020905b81548152906001019060200180831161051e57829003601f168201915b5050505050908060060154908060070154908060080160009054906101000a900460ff16905089565b60016020528060005260406000206000915090505481565b60606000805b60038054905081101561060e57600381815481106105c9577f4e487b7100000000000000000000000000000000000000000000000000000000600052603260045260246000fd5b906000526020600020906009020160080160009054906101000a900460ff166105fb5781806105f790613300565b9250505b808061060690613300565b915050610582565b5060008167ffffffffffffffff811115610651577f4e487b7100000000000000000000000000000000000000000000000000000000600052604160045260246000fd5b60405190808252806020026020018201604052801561068a57816020015b610677612775565b81526020019060019003908161066f5790505b5090506000805b600380549050811015610a0457600381815481106106d8577f4e487b7100000000000000000000000000000000000000000000000000000000600052603260045260246000fd5b906000526020600020906009020160080160009054906101000a900460ff166109f15760038181548110610735577f4e487b7100000000000000000000000000000000000000000000000000000000600052603260045260246000fd5b906000526020600020906009020160405180610120016040529081600082015481526020016001820160009054906101000a900473ffffffffffffffffffffffffffffffffffffffff1673ffffffffffffffffffffffffffffffffffffffff1673ffffffffffffffffffffffffffffffffffffffff168152602001600282015481526020016003820180546107c99061329d565b80601f01602080910402602001604051908101604052809291908181526020018280546107f59061329d565b80156108425780601f1061081757610100808354040283529160200191610842565b820191906000526020600020905b81548152906001019060200180831161082557829003601f168201915b5050505050815260200160048201805461085b9061329d565b80601f01602080910402602001604051908101604052809291908181526020018280546108879061329d565b80156108d45780601f106108a9576101008083540402835291602001916108d4565b820191906000526020600020905b8154815290600101906020018083116108b757829003601f168201915b505050505081526020016005820180546108ed9061329d565b80601f01602080910402602001604051908101604052809291908181526020018280546109199061329d565b80156109665780601f1061093b57610100808354040283529160200191610966565b820191906000526020600020905b81548152906001019060200180831161094957829003601f168201915b5050505050815260200160068201548152602001600782015481526020016008820160009054906101000a900460ff1615151515815250508383815181106109d7577f4e487b7100000000000000000000000000000000000000000000000000000000600052603260045260246000fd5b602002602001018190525081806109ed90613300565b9250505b80806109fc90613300565b915050610691565b5081935050505090565b6000600260003373ffffffffffffffffffffffffffffffffffffffff1673ffffffffffffffffffffffffffffffffffffffff16815260200190815260200160002054905090565b60606003805480602002602001604051908101604052809291908181526020016000905b82821015610cfb578382906000526020600020906009020160405180610120016040529081600082015481526020016001820160009054906101000a900473ffffffffffffffffffffffffffffffffffffffff1673ffffffffffffffffffffffffffffffffffffffff1673ffffffffffffffffffffffffffffffffffffffff16815260200160028201548152602001600382018054610b179061329d565b80601f0160208091040260200160405190810160405280929190818152602001828054610b439061329d565b8015610b905780601f10610b6557610100808354040283529160200191610b90565b820191906000526020600020905b815481529060010190602001808311610b7357829003601f168201915b50505050508152602001600482018054610ba99061329d565b80601f0160208091040260200160405190810160405280929190818152602001828054610bd59061329d565b8015610c225780601f10610bf757610100808354040283529160200191610c22565b820191906000526020600020905b815481529060010190602001808311610c0557829003601f168201915b50505050508152602001600582018054610c3b9061329d565b80601f0160208091040260200160405190810160405280929190818152602001828054610c679061329d565b8015610cb45780601f10610c8957610100808354040283529160200191610cb4565b820191906000526020600020905b815481529060010190602001808311610c9757829003601f168201915b5050505050815260200160068201548152602001600782015481526020016008820160009054906101000a900460ff16151515158152505081526020019060010190610a79565b50505050905090565b60038181548110610d3e577f4e487b7100000000000000000000000000000000000000000000000000000000600052603260045260246000fd5b906000526020600020906009020160010160009054906101000a900473ffffffffffffffffffffffffffffffffffffffff1673ffffffffffffffffffffffffffffffffffffffff163373ffffffffffffffffffffffffffffffffffffffff1614610ddd576040517f08c379a0000000000000000000000000000000000000000000000000000000008152600401610dd490612f14565b60405180910390fd5b60038181548110610e17577f4e487b7100000000000000000000000000000000000000000000000000000000600052603260045260246000fd5b90600052602060002090600902016000808201600090556001820160006101000a81549073ffffffffffffffffffffffffffffffffffffffff02191690556002820160009055600382016000610e6d91906127d9565b600482016000610e7d91906127d9565b600582016000610e8d91906127d9565b600682016000905560078201600090556008820160006101000a81549060ff021916905550503373ffffffffffffffffffffffffffffffffffffffff16817f7e1deda327ef651e07dd27c81b38ba194ca5cc6ec9b50273495ae522234c55b760405160405180910390a350565b6000600160003373ffffffffffffffffffffffffffffffffffffffff1673ffffffffffffffffffffffffffffffffffffffff16815260200190815260200160002054905090565b600181565b6000610f526000612751565b9050610f5e600061275f565b85600260003373ffffffffffffffffffffffffffffffffffffffff1673ffffffffffffffffffffffffffffffffffffffff1681526020019081526020016000206000828254610fad919061312f565b925050819055506340000000600260003373ffffffffffffffffffffffffffffffffffffffff1673ffffffffffffffffffffffffffffffffffffffff1681526020019081526020016000205411156112a757600060018761100e9190613185565b905080600160003373ffffffffffffffffffffffffffffffffffffffff1673ffffffffffffffffffffffffffffffffffffffff168152602001908152602001600020541015611092576040517f08c379a000000000000000000000000000000000000000000000000000000000815260040161108990612f54565b60405180910390fd5b80600160003373ffffffffffffffffffffffffffffffffffffffff1673ffffffffffffffffffffffffffffffffffffffff16815260200190815260200160002060008282546110e191906131df565b9250508190555060036040518061012001604052808481526020013373ffffffffffffffffffffffffffffffffffffffff168152602001898152602001888152602001878152602001868152602001600081526020016000815260200185151581525090806001815401808255809150506001900390600052602060002090600902016000909190919091506000820151816000015560208201518160010160006101000a81548173ffffffffffffffffffffffffffffffffffffffff021916908373ffffffffffffffffffffffffffffffffffffffff1602179055506040820151816002015560608201518160030190805190602001906111e4929190612819565b506080820151816004019080519060200190611201929190612819565b5060a082015181600501908051906020019061121e929190612819565b5060c0820151816006015560e082015181600701556101008201518160080160006101000a81548160ff02191690831515021790555050503373ffffffffffffffffffffffffffffffffffffffff16827f030229516c8151b2075f760db01be9df7393e8f7b929097a0fff260b6d903eec8960405161129d9190612f96565b60405180910390a3505b60036040518061012001604052808381526020013373ffffffffffffffffffffffffffffffffffffffff168152602001888152602001878152602001868152602001858152602001600081526020016000815260200184151581525090806001815401808255809150506001900390600052602060002090600902016000909190919091506000820151816000015560208201518160010160006101000a81548173ffffffffffffffffffffffffffffffffffffffff021916908373ffffffffffffffffffffffffffffffffffffffff1602179055506040820151816002015560608201518160030190805190602001906113a3929190612819565b5060808201518160040190805190602001906113c0929190612819565b5060a08201518160050190805190602001906113dd929190612819565b5060c0820151816006015560e082015181600701556101008201518160080160006101000a81548160ff02191690831515021790555050503373ffffffffffffffffffffffffffffffffffffffff16817f030229516c8151b2075f760db01be9df7393e8f7b929097a0fff260b6d903eec8860405161145c9190612f96565b60405180910390a3505050505050565b60026020528060005260406000206000915090505481565b60005b600380549050811015611816578180519060200120600382815481106114d6577f4e487b7100000000000000000000000000000000000000000000000000000000600052603260045260246000fd5b90600052602060002090600902016004016040516114f49190612ebb565b604051809103902014156118035760006003828154811061153e577f4e487b7100000000000000000000000000000000000000000000000000000000600052603260045260246000fd5b90600052602060002090600902019050600073ffffffffffffffffffffffffffffffffffffffff168160010160009054906101000a900473ffffffffffffffffffffffffffffffffffffffff1673ffffffffffffffffffffffffffffffffffffffff1614156115e2576040517f08c379a00000000000000000000000000000000000000000000000000000000081526004016115d990612ef4565b60405180910390fd5b6000600190508160080160009054906101000a900460ff1615611700576001826006016000828254611614919061312f565b925050819055508082600701600082825461162f919061312f565b9250508190555080600160008460010160009054906101000a900473ffffffffffffffffffffffffffffffffffffffff1673ffffffffffffffffffffffffffffffffffffffff1673ffffffffffffffffffffffffffffffffffffffff16815260200190815260200160002060008282546116a9919061312f565b925050819055503373ffffffffffffffffffffffffffffffffffffffff16837f9c6abbfebc85893d2b2d12cdf658b208acbf4894dc485340daf18c5b296ec2cc836040516116f79190612f96565b60405180910390a35b6001826006016000828254611715919061312f565b9250508190555080826007016000828254611730919061312f565b9250508190555080600160008460010160009054906101000a900473ffffffffffffffffffffffffffffffffffffffff1673ffffffffffffffffffffffffffffffffffffffff1673ffffffffffffffffffffffffffffffffffffffff16815260200190815260200160002060008282546117aa919061312f565b925050819055503373ffffffffffffffffffffffffffffffffffffffff16837f9c6abbfebc85893d2b2d12cdf658b208acbf4894dc485340daf18c5b296ec2cc836040516117f89190612f96565b60405180910390a350505b808061180e90613300565b915050611487565b5050565b634000000081565b61182a612775565b6003805490508210611871576040517f08c379a000000000000000000000000000000000000000000000000000000000815260040161186890612f34565b60405180910390fd5b600382815481106118ab577f4e487b7100000000000000000000000000000000000000000000000000000000600052603260045260246000fd5b906000526020600020906009020160405180610120016040529081600082015481526020016001820160009054906101000a900473ffffffffffffffffffffffffffffffffffffffff1673ffffffffffffffffffffffffffffffffffffffff1673ffffffffffffffffffffffffffffffffffffffff1681526020016002820154815260200160038201805461193f9061329d565b80601f016020809104026020016040519081016040528092919081815260200182805461196b9061329d565b80156119b85780601f1061198d576101008083540402835291602001916119b8565b820191906000526020600020905b81548152906001019060200180831161199b57829003601f168201915b505050505081526020016004820180546119d19061329d565b80601f01602080910402602001604051908101604052809291908181526020018280546119fd9061329d565b8015611a4a5780601f10611a1f57610100808354040283529160200191611a4a565b820191906000526020600020905b815481529060010190602001808311611a2d57829003601f168201915b50505050508152602001600582018054611a639061329d565b80601f0160208091040260200160405190810160405280929190818152602001828054611a8f9061329d565b8015611adc5780601f10611ab157610100808354040283529160200191611adc565b820191906000526020600020905b815481529060010190602001808311611abf57829003601f168201915b5050505050815260200160068201548152602001600782015481526020016008820160009054906101000a900460ff1615151515815250509050919050565b60606000805b600380549050811015611e3f57600060038281548110611b6a577f4e487b7100000000000000000000000000000000000000000000000000000000600052603260045260246000fd5b906000526020600020906009020160405180610120016040529081600082015481526020016001820160009054906101000a900473ffffffffffffffffffffffffffffffffffffffff1673ffffffffffffffffffffffffffffffffffffffff1673ffffffffffffffffffffffffffffffffffffffff16815260200160028201548152602001600382018054611bfe9061329d565b80601f0160208091040260200160405190810160405280929190818152602001828054611c2a9061329d565b8015611c775780601f10611c4c57610100808354040283529160200191611c77565b820191906000526020600020905b815481529060010190602001808311611c5a57829003601f168201915b50505050508152602001600482018054611c909061329d565b80601f0160208091040260200160405190810160405280929190818152602001828054611cbc9061329d565b8015611d095780601f10611cde57610100808354040283529160200191611d09565b820191906000526020600020905b815481529060010190602001808311611cec57829003601f168201915b50505050508152602001600582018054611d229061329d565b80601f0160208091040260200160405190810160405280929190818152602001828054611d4e9061329d565b8015611d9b5780601f10611d7057610100808354040283529160200191611d9b565b820191906000526020600020905b815481529060010190602001808311611d7e57829003601f168201915b5050505050815260200160068201548152602001600782015481526020016008820160009054906101000a900460ff16151515158152505090508473ffffffffffffffffffffffffffffffffffffffff16816020015173ffffffffffffffffffffffffffffffffffffffff16148015611e175750806101000151155b15611e2b578280611e2790613300565b9350505b508080611e3790613300565b915050611b21565b5060008167ffffffffffffffff811115611e82577f4e487b7100000000000000000000000000000000000000000000000000000000600052604160045260246000fd5b604051908082528060200260200182016040528015611ebb57816020015b611ea8612775565b815260200190600190039081611ea05790505b5090506000915060005b60038054905081101561222857600060038281548110611f0e577f4e487b7100000000000000000000000000000000000000000000000000000000600052603260045260246000fd5b906000526020600020906009020160405180610120016040529081600082015481526020016001820160009054906101000a900473ffffffffffffffffffffffffffffffffffffffff1673ffffffffffffffffffffffffffffffffffffffff1673ffffffffffffffffffffffffffffffffffffffff16815260200160028201548152602001600382018054611fa29061329d565b80601f0160208091040260200160405190810160405280929190818152602001828054611fce9061329d565b801561201b5780601f10611ff05761010080835404028352916020019161201b565b820191906000526020600020905b815481529060010190602001808311611ffe57829003601f168201915b505050505081526020016004820180546120349061329d565b80601f01602080910402602001604051908101604052809291908181526020018280546120609061329d565b80156120ad5780601f10612082576101008083540402835291602001916120ad565b820191906000526020600020905b81548152906001019060200180831161209057829003601f168201915b505050505081526020016005820180546120c69061329d565b80601f01602080910402602001604051908101604052809291908181526020018280546120f29061329d565b801561213f5780601f106121145761010080835404028352916020019161213f565b820191906000526020600020905b81548152906001019060200180831161212257829003601f168201915b5050505050815260200160068201548152602001600782015481526020016008820160009054906101000a900460ff16151515158152505090508573ffffffffffffffffffffffffffffffffffffffff16816020015173ffffffffffffffffffffffffffffffffffffffff161480156121bb5750806101000151155b1561221457808385815181106121fa577f4e487b7100000000000000000000000000000000000000000000000000000000600052603260045260246000fd5b6020026020010181905250838061221090613300565b9450505b50808061222090613300565b915050611ec5565b508092505050919050565b60606000805b600380549050811015612307573373ffffffffffffffffffffffffffffffffffffffff1660038281548110612297577f4e487b7100000000000000000000000000000000000000000000000000000000600052603260045260246000fd5b906000526020600020906009020160010160009054906101000a900473ffffffffffffffffffffffffffffffffffffffff1673ffffffffffffffffffffffffffffffffffffffff1614156122f45781806122f090613300565b9250505b80806122ff90613300565b915050612239565b5060008167ffffffffffffffff81111561234a577f4e487b7100000000000000000000000000000000000000000000000000000000600052604160045260246000fd5b60405190808252806020026020018201604052801561238357816020015b612370612775565b8152602001906001900390816123685790505b5090506000805b60038054905081101561273f573373ffffffffffffffffffffffffffffffffffffffff16600382815481106123e8577f4e487b7100000000000000000000000000000000000000000000000000000000600052603260045260246000fd5b906000526020600020906009020160010160009054906101000a900473ffffffffffffffffffffffffffffffffffffffff1673ffffffffffffffffffffffffffffffffffffffff16141561272c5760038181548110612470577f4e487b7100000000000000000000000000000000000000000000000000000000600052603260045260246000fd5b906000526020600020906009020160405180610120016040529081600082015481526020016001820160009054906101000a900473ffffffffffffffffffffffffffffffffffffffff1673ffffffffffffffffffffffffffffffffffffffff1673ffffffffffffffffffffffffffffffffffffffff168152602001600282015481526020016003820180546125049061329d565b80601f01602080910402602001604051908101604052809291908181526020018280546125309061329d565b801561257d5780601f106125525761010080835404028352916020019161257d565b820191906000526020600020905b81548152906001019060200180831161256057829003601f168201915b505050505081526020016004820180546125969061329d565b80601f01602080910402602001604051908101604052809291908181526020018280546125c29061329d565b801561260f5780601f106125e45761010080835404028352916020019161260f565b820191906000526020600020905b8154815290600101906020018083116125f257829003601f168201915b505050505081526020016005820180546126289061329d565b80601f01602080910402602001604051908101604052809291908181526020018280546126549061329d565b80156126a15780601f10612676576101008083540402835291602001916126a1565b820191906000526020600020905b81548152906001019060200180831161268457829003601f168201915b5050505050815260200160068201548152602001600782015481526020016008820160009054906101000a900460ff161515151581525050838381518110612712577f4e487b7100000000000000000000000000000000000000000000000000000000600052603260045260246000fd5b6020026020010181905250818061272890613300565b9250505b808061273790613300565b91505061238a565b5081935050505090565b634000000081565b600081600001549050919050565b6001816000016000828254019250508190555050565b60405180610120016040528060008152602001600073ffffffffffffffffffffffffffffffffffffffff1681526020016000815260200160608152602001606081526020016060815260200160008152602001600081526020016000151581525090565b5080546127e59061329d565b6000825580601f106127f75750612816565b601f016020900490600052602060002090810190612815919061289f565b5b50565b8280546128259061329d565b90600052602060002090601f016020900481019282612847576000855561288e565b82601f1061286057805160ff191683800117855561288e565b8280016001018555821561288e579182015b8281111561288d578251825591602001919060010190612872565b5b50905061289b919061289f565b5090565b5b808211156128b85760008160009055506001016128a0565b5090565b60006128cf6128ca84613078565b613053565b9050828152602081018484840111156128e757600080fd5b6128f284828561325b565b509392505050565b6000813590506129098161348b565b92915050565b60008135905061291e816134a2565b92915050565b600082601f83011261293557600080fd5b81356129458482602086016128bc565b91505092915050565b60008135905061295d816134b9565b92915050565b60006020828403121561297557600080fd5b6000612983848285016128fa565b91505092915050565b60006020828403121561299e57600080fd5b600082013567ffffffffffffffff8111156129b857600080fd5b6129c484828501612924565b91505092915050565b6000602082840312156129df57600080fd5b60006129ed8482850161294e565b91505092915050565b600080600080600060a08688031215612a0e57600080fd5b6000612a1c8882890161294e565b955050602086013567ffffffffffffffff811115612a3957600080fd5b612a4588828901612924565b945050604086013567ffffffffffffffff811115612a6257600080fd5b612a6e88828901612924565b935050606086013567ffffffffffffffff811115612a8b57600080fd5b612a9788828901612924565b9250506080612aa88882890161290f565b9150509295509295909350565b6000612ac18383612cf7565b905092915050565b612ad281613213565b82525050565b612ae181613213565b82525050565b6000612af2826130ce565b612afc81856130f1565b935083602082028501612b0e856130a9565b8060005b85811015612b4a5784840389528151612b2b8582612ab5565b9450612b36836130e4565b925060208a01995050600181019050612b12565b50829750879550505050505092915050565b612b6581613225565b82525050565b612b7481613225565b82525050565b60008154612b878161329d565b612b918186613102565b94506001821660008114612bac5760018114612bbd57612bf0565b60ff19831686528186019350612bf0565b612bc6856130b9565b60005b83811015612be857815481890152600182019150602081019050612bc9565b838801955050505b50505092915050565b6000612c04826130d9565b612c0e818561310d565b9350612c1e81856020860161326a565b612c27816133d6565b840191505092915050565b6000612c3d826130d9565b612c47818561311e565b9350612c5781856020860161326a565b612c60816133d6565b840191505092915050565b6000612c7860168361311e565b9150612c83826133e7565b602082019050919050565b6000612c9b60138361311e565b9150612ca682613410565b602082019050919050565b6000612cbe60128361311e565b9150612cc982613439565b602082019050919050565b6000612ce1601b8361311e565b9150612cec82613462565b602082019050919050565b600061012083016000830151612d106000860182612e9d565b506020830151612d236020860182612ac9565b506040830151612d366040860182612e9d565b5060608301518482036060860152612d4e8282612bf9565b91505060808301518482036080860152612d688282612bf9565b91505060a083015184820360a0860152612d828282612bf9565b91505060c0830151612d9760c0860182612e9d565b5060e0830151612daa60e0860182612e9d565b50610100830151612dbf610100860182612b5c565b508091505092915050565b600061012083016000830151612de36000860182612e9d565b506020830151612df66020860182612ac9565b506040830151612e096040860182612e9d565b5060608301518482036060860152612e218282612bf9565b91505060808301518482036080860152612e3b8282612bf9565b91505060a083015184820360a0860152612e558282612bf9565b91505060c0830151612e6a60c0860182612e9d565b5060e0830151612e7d60e0860182612e9d565b50610100830151612e92610100860182612b5c565b508091505092915050565b612ea681613251565b82525050565b612eb581613251565b82525050565b6000612ec78284612b7a565b915081905092915050565b60006020820190508181036000830152612eec8184612ae7565b905092915050565b60006020820190508181036000830152612f0d81612c6b565b9050919050565b60006020820190508181036000830152612f2d81612c8e565b9050919050565b60006020820190508181036000830152612f4d81612cb1565b9050919050565b60006020820190508181036000830152612f6d81612cd4565b9050919050565b60006020820190508181036000830152612f8e8184612dca565b905092915050565b6000602082019050612fab6000830184612eac565b92915050565b600061012082019050612fc7600083018c612eac565b612fd4602083018b612ad8565b612fe1604083018a612eac565b8181036060830152612ff38189612c32565b905081810360808301526130078188612c32565b905081810360a083015261301b8187612c32565b905061302a60c0830186612eac565b61303760e0830185612eac565b613045610100830184612b6b565b9a9950505050505050505050565b600061305d61306e565b905061306982826132cf565b919050565b6000604051905090565b600067ffffffffffffffff821115613093576130926133a7565b5b61309c826133d6565b9050602081019050919050565b6000819050602082019050919050565b60008190508160005260206000209050919050565b600081519050919050565b600081519050919050565b6000602082019050919050565b600082825260208201905092915050565b600081905092915050565b600082825260208201905092915050565b600082825260208201905092915050565b600061313a82613251565b915061314583613251565b9250827fffffffffffffffffffffffffffffffffffffffffffffffffffffffffffffffff0382111561317a57613179613349565b5b828201905092915050565b600061319082613251565b915061319b83613251565b9250817fffffffffffffffffffffffffffffffffffffffffffffffffffffffffffffffff04831182151516156131d4576131d3613349565b5b828202905092915050565b60006131ea82613251565b91506131f583613251565b92508282101561320857613207613349565b5b828203905092915050565b600061321e82613231565b9050919050565b60008115159050919050565b600073ffffffffffffffffffffffffffffffffffffffff82169050919050565b6000819050919050565b82818337600083830152505050565b60005b8381101561328857808201518184015260208101905061326d565b83811115613297576000848401525b50505050565b600060028204905060018216806132b557607f821691505b602082108114156132c9576132c8613378565b5b50919050565b6132d8826133d6565b810181811067ffffffffffffffff821117156132f7576132f66133a7565b5b80604052505050565b600061330b82613251565b91507fffffffffffffffffffffffffffffffffffffffffffffffffffffffffffffffff82141561333e5761333d613349565b5b600182019050919050565b7f4e487b7100000000000000000000000000000000000000000000000000000000600052601160045260246000fd5b7f4e487b7100000000000000000000000000000000000000000000000000000000600052602260045260246000fd5b7f4e487b7100000000000000000000000000000000000000000000000000000000600052604160045260246000fd5b6000601f19601f8301169050919050565b7f4461746173657420646f6573206e6f7420657869737400000000000000000000600082015250565b7f4e6f7420646174617365742063726561746f7200000000000000000000000000600082015250565b7f496e76616c696420646174617365742049440000000000000000000000000000600082015250565b7f467265652073746f72616765206c696d69742065786365656465640000000000600082015250565b61349481613213565b811461349f57600080fd5b50565b6134ab81613225565b81146134b657600080fd5b50565b6134c281613251565b81146134cd57600080fd5b5056fea26469706673582212207290aeb33bb8bf5010e5a559353a114af9f3b1e833247c56f9c0899d47c6628164736f6c63430008040033",
  "linkReferences": {},
  "deployedLinkReferences": {}
}